:100000000C942A000C9418030C9447000C9447009D
:100010000C9447000C9447000C9419040C94C403EE
:100020000C9447000C94F4030C9447000C94830345
:100030000C9447000C94C9040C9447000C94F204EF
:100040000C9441030C9447000C9447000C94470017
:100050000C94470011241FBECFE5D8E0DEBFCDBF12
:1000600010E0A0E6B0E0E4EDFDE002C005900D92E6
:10007000AA37B107D9F720E0AAE7B0E001C01D9286
:10008000A63CB207E1F70E9449000C94E8060C94E4
:1000900000007F928F929F92AF92BF92CF92DF9299
:1000A000EF92FF920F931F93CF93DF930E94060569
:1000B0000E941D0123E333E343E650E463E373E36B
:1000C00087E491E40E949102C62F772E082F192F02
:1000D00023E333E343E650E463E373E387E491E42B
:1000E0000E94AD024B015C0123E333E343E650E49D
:1000F00063E373E387E491E40E94CA026B017C012D
:1001000023E333E343E650E463E373E387E491E4FA
:100110000E94E702D62F8C2F0E9433016C2F772D7F
:10012000802F912F0E94A40188E790E00E94910106
:10013000C501B4010E94A40188E790E00E949101EA
:10014000C701B6010E94A40188E790E00E949101D6
:100150008D2F0E94330188E790E00E94910180E09A
:1001600090E0DF91CF911F910F91FF90EF90DF9082
:10017000CF90BF90AF909F908F907F900895CF9336
:10018000C82F60E081E00E94010260E082E00E94EE
:100190000102C4FB662760F983E00E940102C5FBEF
:1001A000662760F984E00E940102C6FB662760F9B9
:1001B00085E00E9401026C2F661F6627661F86E09D
:1001C0000E94010261E082E00E9401028FE99FE04B
:1001D0000197F1F700C0000060E082E00E94010298
:1001E0006C2F617083E00E940102C1FB662760F9F9
:1001F00084E00E940102C2FB662760F985E00E944C
:100200000102C3FB662760F986E00E94010261E0FB
:1002100082E00E9401028FE99FE00197F1F700C0A0
:10022000000060E082E00E9401028FE19EE40197FD
:10023000F1F700C00000CF91089583E30E94BF0052
:1002400082E30E94BF0088E20E94BF008CE00E940F
:10025000BF0081E00E94BF0086E00E94BF0082E0F4
:100260000E94BF000895CF93C82F61E081E00E94F3
:10027000010260E082E00E940102C4FB662760F98F
:1002800083E00E940102C5FB662760F984E00E94BA
:100290000102C6FB662760F985E00E9401026C2F0F
:1002A000661F6627661F86E00E94010261E082E009
:1002B0000E9401028FE99FE00197F1F700C0000062
:1002C00060E082E00E9401026C2F617083E00E9476
:1002D0000102C1FB662760F984E00E940102C2FBB3
:1002E000662760F985E00E940102C3FB662760F97A
:1002F00086E00E94010261E082E00E9401028FE933
:100300009FE00197F1F700C0000060E082E00E94EA
:1003100001028FE19EE40197F1F700C00000CF9148
:1003200008950F931F93CF938C01C0E003C00E94E8
:100330003301CF5FF801EC0FF11D80818111F7CF00
:10034000CF911F910F910895CF92DF92EF92FF927C
:100350000F931F938B019C01672B682B692B49F529
:1003600080E30E94330146C0DC01CB01880F991F56
:10037000AA1FBB1F6C017D01CC0CDD1CEE1CFF1CF9
:10038000CC0CDD1CEE1CFF1CC80ED91EEA1EFB1E89
:10039000C901B8012AE030E040E050E00E947E064A
:1003A0006C0D7D1D8E1D9F1D022F132F242F352FA9
:1003B00004C061E070E080E090E0011511052105C6
:1003C000310591F612C02AE030E040E050E00E9492
:1003D000A006E22EF32E042F152F80E3860F0E9435
:1003E00033016E2D7F2D802F912F62307105810595
:1003F00091054CF71F910F91FF90EF90DF90CF90F8
:100400000895982F9695969596958770662309F48A
:100410003FC0613009F07BC0913099F028F09230F4
:10042000E9F0933041F108954BB321E030E0B90198
:1004300002C0660F771F8A95E2F7CB01842B8BBB36
:10044000089548B321E030E0B90102C0660F771F7C
:100450008A95E2F7CB01842B88BB089545B321E050
:1004600030E0B90102C0660F771F8A95E2F7CB0131
:10047000842B85BB089542B321E030E0B90102C06E
:10048000660F771F8A95E2F7CB01842B82BB089514
:100490009130A1F028F09230F9F0933059F108959D
:1004A0004BB321E030E0B90102C0660F771F8A9597
:1004B000E2F7CB01809584238BBB089548B321E0FC
:1004C00030E0B90102C0660F771F8A95E2F7CB01D1
:1004D0008095842388BB089545B321E030E0B901BD
:1004E00002C0660F771F8A95E2F7CB0180958423BF
:1004F00085BB089542B321E030E0B90102C0660F28
:10050000771F8A95E2F7CB018095842382BB0895FB
:1005100020E030E0A9010E9411060E948A05CB016B
:100520000895CF92DF92EF92FF92CF93DF9369010C
:100530007A010E948802EC01C701B6010E9488027C
:100540008C0F9D1FBC01990F880B990BDF91CF91E8
:10055000FF90EF90DF90CF900895CF92DF92EF92CF
:10056000FF92CF93DF9369017A010E948802EC0128
:10057000C701B6010E948802BE01681B790B072ED5
:10058000000C880B990BDF91CF91FF90EF90DF90DB
:10059000CF900895CF92DF92EF92FF92CF93DF93A7
:1005A00069017A010E948802EC01C701B6010E942C
:1005B00088029E01DC010E94BF06BC0188279927A2
:1005C000DF91CF91FF90EF90DF90CF9008958F92C1
:1005D0009F92AF92BF92CF92DF92EF92FF9249012A
:1005E0005A010E9488026C01990FEE08FF08C501AC
:1005F000B4010E9488029C01990F440B550B2115F0
:1006000031054105510541F0C601772766270E9453
:100610007E06CA01B90103C060E070E0CB01FF9023
:10062000EF90DF90CF90BF90AF909F908F90089504
:100630001F920F920FB60F9211242F933F934F9357
:100640005F936F937F938F939F93AF93BF93EF933A
:10065000FF93E0919C00F0919D00309709F009957F
:10066000FF91EF91BF91AF919F918F917F916F918A
:100670005F914F913F912F910F900FBE0F901F9060
:1006800018951F920F920FB60F9211242F933F933C
:100690004F935F936F937F938F939F93AF93BF938A
:1006A000CF93DF93EF93FF93C091BA00D091BB003B
:1006B0002097B1F024B135B1A8E8B3E10E94C70694
:1006C0002FEF33E040E050E00E947E0620937A0056
:1006D00030937B0040937C0050937D00FE01099590
:1006E000FF91EF91DF91CF91BF91AF919F918F914A
:1006F0007F916F915F914F913F912F910F900FBE1E
:100700000F901F9018951F920F920FB60F92112401
:100710002F933F934F935F936F937F938F939F9309
:10072000AF93BF93EF93FF93809197008F5F809378
:10073000970090E0A0E0B0E04091820050918300EB
:10074000609184007091850084179507A607B7070C
:1007500051F4E091B000F091B1000995109297002A
:1007600080917E0082BFFF91EF91BF91AF919F91E9
:100770008F917F916F915F914F913F912F910F904A
:100780000FBE0F901F9018951F920F920FB60F92E9
:1007900011242F933F934F935F936F937F938F9386
:1007A0009F93AF93BF93EF93FF93809196008F5FDA
:1007B00080939600813039F4E091A800F091A9006F
:1007C000099510929600FF91EF91BF91AF919F9183
:1007D0008F917F916F915F914F913F912F910F90EA
:1007E0000FBE0F901F9018951F920F920FB60F9289
:1007F00011248F939F93AF93BF9380919800909112
:100800009900A0919A00B0919B000196A11DB11D85
:100810008093980090939900A0939A00B0939B00C6
:10082000BF91AF919F918F910F900FBE0F901F902E
:1008300018951F920F920FB60F9211242F933F938A
:100840004F935F936F937F938F939F93AF93BF93D8
:10085000EF93FF938091860090918700A09188008C
:10086000B09189000196A11DB11D809386009093DF
:100870008700A0938800B0938900809186009091B2
:100880008700A0918800B09189000197A105B1056A
:10089000C1F486B597B5A0E0B0E080939200909344
:1008A0009300A0939400B09395001092980010923A
:1008B000990010929A0010929B008EB58F7B8EBD8E
:1008C00057C08091860090918700A0918800B091D8
:1008D00089000297A105B10501F5E6B5F7B52091AC
:1008E00098003091990040919A0050919B00AFEF91
:1008F000BFEF0E94DD06DC01CB018E0F9F1FA11D03
:10090000B11D80938E0090938F00A0939000B093C0
:1009100091008EB580648EBD2BC080918600909131
:100920008700A0918800B09189000397A105B105C7
:10093000F9F4E6B5F7B5209198003091990040910F
:100940009A0050919B00AFEFBFEF0E94DD06DC01E3
:10095000CB018E0F9F1FA11DB11D80938A00909324
:100960008B00A0938C00B0938D0089B78F7D89BFD9
:10097000FF91EF91BF91AF919F918F917F916F9177
:100980005F914F913F912F910F900FBE0F901F904D
:1009900018951F920F920FB60F9211242F933F9329
:1009A0004F935F936F937F938F939F93AF93BF9377
:1009B000EF93FF93E091B400F091B500309709F008
:1009C0000995FF91EF91BF91AF919F918F917F9189
:1009D0006F915F914F913F912F910F900FBE0F90AC
:1009E0001F9018951F920F920FB60F9211248F939C
:1009F00081E08093C5008091C4008F5F8093C40024
:100A00008F910F900FBE0F901F90189590E07EC0B1
:100A1000E92FF0E0EE0FFF1FE05AFF4F8081282FF3
:100A2000269526952695877031813323B9F131308B
:100A300009F06BC0213089F028F02230C9F0233052
:100A400011F163C04AB321E030E002C0220F331F2E
:100A50008A95E2F7242B2ABB58C047B321E030E047
:100A600002C0220F331F8A95E2F7242B27BB4DC00B
:100A700044B321E030E002C0220F331F8A95E2F731
:100A8000242B24BB42C041B321E030E002C0220F3E
:100A9000331F8A95E2F7242B21BB37C0213091F018
:100AA00028F02230D9F0233029F12FC04AB321E0B9
:100AB00030E002C0220F331F8A95E2F720952423ED
:100AC0002ABB23C047B321E030E002C0220F331F0E
:100AD0008A95E2F72095242327BB17C044B321E071
:100AE00030E002C0220F331F8A95E2F720952423BD
:100AF00024BB0BC041B321E030E002C0220F331F02
:100B00008A95E2F72095242321BB9F5F9C3008F44F
:100B10007FCF08950E9491056894B1110C940B0643
:100B200008950E94F00588F09F5798F0B92F9927F3
:100B3000B751B0F0E1F0660F771F881F991F1AF0C8
:100B4000BA95C9F714C0B13091F00E940A06B1E01D
:100B500008950C940A06672F782F8827B85F39F01C
:100B6000B93FCCF3869577956795B395D9F73EF461
:100B700090958095709561957F4F8F4F9F4F089509
:100B800097F99F6780E870E060E008959FEF80EC40
:100B9000089500240A9416161706180609060895E3
:100BA00000240A9412161306140605060895092E49
:100BB0000394000C11F4882352F0BB0F40F4BF2BB8
:100BC00011F460FF04C06F5F7F4F8F4F9F4F0895F8
:100BD00057FD9058440F551F59F05F3F71F04795EE
:100BE000880F97FB991F61F09F3F79F087950895D3
:100BF000121613061406551FF2CF4695F1DF08C0F2
:100C0000161617061806991FF1CF8695710561050E
:100C100008940895E894BB2766277727CB0197F9B6
:100C200008950E9424060C94D7050E94C90538F047
:100C30000E94D00520F0952311F00C94C0050C946F
:100C4000C60511240C940B060E94E80570F3959FCD
:100C5000C1F3950F50E0551F629FF001729FBB27B3
:100C6000F00DB11D639FAA27F00DB11DAA1F649F4F
:100C70006627B00DA11D661F829F2227B00DA11D02
:100C8000621F739FB00DA11D621F839FA00D611D88
:100C9000221F749F3327A00D611D231F849F600DA9
:100CA000211D822F762F6A2F11249F5750409AF0D2
:100CB000F1F088234AF0EE0FFF1FBB1F661F771F5E
:100CC000881F91505040A9F79E3F510580F00C9429
:100CD000C0050C940B065F3FE4F3983ED4F3869571
:100CE00077956795B795F795E7959F5FC1F7FE2BC9
:100CF000880F911D9695879597F90895A1E21A2E70
:100D0000AA1BBB1BFD010DC0AA1FBB1FEE1FFF1FAF
:100D1000A217B307E407F50720F0A21BB30BE40BFF
:100D2000F50B661F771F881F991F1A9469F7609546
:100D30007095809590959B01AC01BD01CF01089500
:100D4000052E97FB1EF400940E94B70657FD07D0AE
:100D50000E947E0607FC03D04EF40C94B706509513
:100D60004095309521953F4F4F4F5F4F0895909597
:100D70008095709561957F4F8F4F9F4F08950E948A
:100D8000C706332312F48A1B9B0B0C94D806A29F30
:100D9000B001B39FC001A39F700D811D1124911D4F
:100DA000B29F700D811D1124911D08950E94C706E8
:100DB000B7FF0895821B930B08950E94C706A59F55
:100DC000900DB49F900DA49F800D911D1124089546
:040DD000F894FFCFC5
:100DD4000101020103010401050106010B011D01CA
:0A0DE40000000000000000002F00D6
:00000001FF
